:100000000C943B100C9458100C9458100C945810ED
:100010000C9458100C9458100C9458100C945810C0
:100020000C9449160C9458100C9458100C945810B9
:100030000C9458100C941C130C9458100C945810D9
:100040000C9434160C9458100C9458100C945810AE
:100050000C9458100C9458100C9458100C94581080
:100060000C9458100C94DF120C9458100C945810E7
:100070000C9458100C9458106F52774F46312F7AC9
:100080007459373874344E5A56696B4D494A4C4A44
:100090004B4A794B62322B6A4C556A7356716B49E5
:1000A0006C454C704C49594837534B714849704620
:1000B0006572383457664A35385044442B503745BA
:1000C0007034326178546F6D326D6D752F507135AB
:1000D0004B70485877755676747864735A32645505
:1000E000652B6B6F4649724650682F544E55616AB6
:1000F0006A52714E476F3061516157747830562B98
:10010000383377646E2B6D6F474658562B317478B1
:100110007141333562524149794C32687755596A99
:100120006763576433386D34454648582B676466B7
:1001300076316F4F53742B7A795746507471474D0F
:100140004374784E742F3269485176364D4749785A
:10015000434E325232556F6C6770687670696E49E3
:100160007141313572664234384348765A6B6C348B
:10017000384348764B306E34577237766C5264731E
:1001800069613874396C36422F4356644578796119
:100190004B7A595737427575556663745455747365
:1001A0004D6A36416D426C305979613268576652FA
:1001B00031515574597245456D3446636D34396516
:1001C000517158455469554271477A693174316AA1
:1001D00045695551316A47666C545A7A7450515882
:1001E000336C7554585544484C304F64583355441B
:1001F0007950695750386E586D2B473449374D55F3
:10020000725736703768564E784C72565836574487
:100210004C466F763230762B4E30642F3576326E08
:10022000556A31497545366F4543414546664470C8
:100230005A394D72656A334378394F6D62586E672B
:10024000316E6738754D383735377A657953744A6A
:10025000336E792B2B624D46654B384C662F4434F8
:10026000326E342F5A5949694638526946305369BB
:1002700055585136485649707A4751724864427908
:100280004D426F57336D314B4D5559435366706630
:100290005A72456E686B4659757438575158345ABE
:1002A000522F30466C525169415634477A376D713E
:1002B000784F426252317965303765334731504665
:1002C0006F744F46676B4E4E5A6A46304A70456BA4
:1002D000446756754B38754A6845416746416945DC
:1002E0005269464D49704F56456F755A6C4D6A6B51
:1002F000396E6C67744E68734D5276524D78714EFC
:100300006E633236576E4B356838446764376A63BC
:100310006154644865475074725658326647467354
:100320004D5A75526B306F6C79656576444E6B77BC
:1003300048777747684A30536A68694D77574E74F3
:100340003766556D6C4256574C456E346537356689
:10035000644F557545466433594F38727A6A6963FC
:1003600053616350334448453558466B4E526C5187
:100370004C78534B776A34665648566D74495565C8
:1003800069427452637A6F6456536E49342F4C3508
:100390004A78414967304B6869385A6A36697156FC
:1003A0006B5576357039426F4D78714E48593261D0
:1003B000537670395A5446454A5246554C52565710
:1003C00072496B596930616A6970704E2F58336990
:1003D0003971545362756830505A32537A72686377
:1003E000716C663370493841316A5342796A6F479C
:1003F00055436E543458493578324377332B78322D
:1004000076414863615464482B4B4F4E48593261E2
:10041000537672394A5A47555453584F34432F4CE8
:1004200050734467392F68384F5A385430726262BB
:100430004E735469647552797667434152794151DC
:100440006A3051694674547138695954306A596236
:10045000567652364F6B49687932597A77723766D9
:1004600074415865364B754A6E38786D74415665DF
:100470004B4576357031436F302B703134664F6C9D
:100480006930662F6F5131364B6B71464359652F7A
:10049000454E555748394530485930616970724E5C
:1004A00050523153726F6845706447305853334B24
:1004B000596D3633414E387A776A34665650556DE9
:1004C000464656327649476379656376796A6C4168
:1004D0007074444138336F565261476B51614D6CB3
:1004E000585331696F59357666474E743766556D86
:1004F000464E55326E4248553766556D4646563221
:1005000076494563435164663943564F494D383700
:10051000526E772B6D4A4F566B637335782B42774B
:10052000755677756B5A634E554864396165737AB1
:1005300053615253726769455261474D5153504E52
:1005400076563179766F44413533413447343748F4
:1005500075494F6446516C594B78594C3372445924
:10056000613762624E7354696475527976674341AC
:100570005236445162375461616D6F3151534E4E62
:1005800066543143706F7A473543334B5975353371
:100590003443394C656D417748497A515A4F323866
:1005A0003072624E7341535578377A65614F73707C
:1005B00054365453376969555461554F67422F5427
:1005C0007367594457764C354A3542494978494A08
:1005D00033327932334446454A524855626257476E
:1005E00052483369646D53795876423475313676A2
:1005F0006A4A6D517A325379587642344F78345082
:100600005848486B39666D67567967556A55562B59
:100610004F454E3959624545686B48506562387799
:10062000326A4B716B5567586C4D6B344777344861
:10063000324C4F466D63383752767A2B654F4D7486
:100640007A6557755548646E3643764A76317975C2
:100650005550636E534876684B78594C58764234FF
:100660004F353750504546384F52395438716254DF
:100670007367594457764A35352F4234753136768B
:100680006A4A6D51547951536A70684D6F565031B2
:10069000495A4D565561754A6E387A6D644756759C
:1006A000746F6566465658522F434872594C4D69CF
:1006B000332B38727A726A6361546448654F4F74A1
:1006C0006A63572B5748506C4B5A65586B426658B3
:1006D000734965666C4A554F44466E6F2F2F7A6D8D
:1006E0002B4B4D565861305342743533622B6B6F30
:1006F000453472464F522F54736F62444F6B4968B2
:10070000533662544D6B616A6970724E505A32535F
:100710007A6A6963795766764C456C3475313676FA
:1007200044466E7766377A653643744A2F58792B7C
:1007300033544E312B583954617572464952506CBE
:100740007356764249354C35755677654674653330
:1007500067682F6E736F5A332B714C6C73317174E1
:100760006A55562B75494D6456616D4951364C5248
:100770004D35724E76563179766741414234424169
:100780007031416F6B38706C6162654847464E311D
:1007900034664F6C6955662F4A45333665754C781B
:1007A0006F394C704C78514B6770375076414663C7
:1007B0004B5264586347667672496D595379615458
:1007C0006B68594C586E4334322B373349452F37B9
:1007D000706F7847704131614B6B716C4351646647
:1007E0006447567573416666744156657241745A22
:1007F00064446963536163505850476B56536E4964
:1008000059374A5A647A6963795766764C456C342D
:100810004F783450334C4545686347385753394C0B
:100820002F714251723151716B705A4C667542771B
:100830005035784F6F493862566E533632724A5A85
:1008400064376A633658666E7149755A46776745EC
:10085000685546387556397A345336586C42666A4C
:100860007349637256505553464E55436E4248671E
:1008700037665753314C5747784C3243526E792B79
:10088000324C4D4632573972375367556955584A7D
:10089000654750614C525868624F6B666B387253B3
:1008A00071646341514839543671706C633775789F
:1008B0006E6B346E794C75426D30346E5348766889
:1008C0004B78614C6E704449343349357832437704
:1008D00033327732484E453048593061436C717439
:1008E0006A55562B754150644D4A6B516A635447A3
:1008F000646D5357586E4363322B3554594F2B5008
:10090000444E6A49395075686930616A6968714E48
:1009100048593261536E6F395253484D3458506CB8
:100920004B5A63585550656E43467478597A495A04
:1009300056366A55626257477844334335717A5761
:10094000374B6D4977324B7867304B6843345A44A4
:100950002B694B526B30716C43596566464E55326C
:100960006E4248553758586D3943564F6F492B6280
:10097000467452714D6B616A69686F4E5853314BC2
:10098000496B346E794474422B33362F424E3279A0
:100990003372445937665A373536782B72416C7743
:1009A0004B705A6A2B4B44676237527171676F31D3
:1009B00057533937666D41416E387A5763655765CD
:1009C0005576636E794474422B2F372F4A4D323659
:1009D000576E4B3542774341523642514C78514B1A
:1009E0004174377672496B5943776144476C49705B
:1009F0007A2B527976674141423442414A784149E3
:100A000067384A68362F5A375A6D7932334C454524
:100A1000425945634351666674495565694A755242
:100A20006B73706C372F6577694276474D3572610D
:100A300050703046436C67736B557435352F4234B4
:100A40004F7836506E4A47557A6557753044646919
:100A50002B43506F76643258586E4364322B3753B1
:100A60007041392B646554792F71445137335336B3
:100A700057764C354A78414941774B42473435489F
:100A8000654F4D747A5756754D4D632F78443143F9
:100A9000706F7A475A4731717367594432724C5AB2
:100AA0004E35684D494A4D565679763676397A64D0
:100AB000634F636354506B54463468334A52486EF4
:100AC000364856564E6B582B2B434E4E2F66306988
:100AD000466C5371557662374A4D786D7359574C51
:100AE000794474552B2F3571354B30664174373648
:100AF00072496B4E4459625775344A42657A34667E
:100B0000314458475A4731714D6B616A436C6F7479
:100B10005453564F6F49386231725461616D6F3171
:100B200077574E7462625747524833693969535355
:100B3000546E673847513962397152534C6B696B47
:100B400056536E49342F4A35352F42344F35355080
:100B5000664F4773305776707239547138695954FB
:100B600030726262746F5443356977576A4A6D51C7
:100B70005436545337716A5562625547684A325346
:100B80007A6A6763435963665633586D634756758F
:100B90004D4D632F524831694E6B51696C70524B09
:100BA0006F673448324C4F466D4D2B37414679477D
:100BB00055506350794C7370324F376670492B62D1
:100BC0006C6F5A4B4974786E36446C4A2F2B352B18
:100BD0007542466464617541527A495144345243C6
:100BE0004A73786D4E4D552B474E4D3177654D7498
:100BF0005461554F67422F544D6B596A7972706436
:100C000064626D41523644513733533632724A5A18
:100C1000647A67634351666674495565434E7578D7
:100C200041774942322B3533344B384C3372425979
:100C30004B355A4C667542777639787573416666DE
:100C40007449576553507368792B5A7A3471355803
:100C5000634F657644466C7776397A75384B6350C6
:100C60005848466B74566C7776397A7538436650B7
:100C700076414863615464482B43504E7664307922
:100C80004874426F73316F747A57587538436450A3
:100C9000664F477330577670723952714D73626A7E
:100CA000716F72467564387A777235663943584F7A
:100CB000594F3872546E673847512F6274675343E7
:100CC000526E772B6D42505673647378772B4C7845
:100CD0006F394C707239547138695954307262628C
:100CE000736751436852794F774C3844326A4B5A94
:100CF000467769455253484D3458506C716465339A
:100D000041462F7A496B346E534876684B35624CB6
:100D1000506B4167463468454A5A45556A63572BBC
:100D2000324C4D4632653872546E69385761384CD2
:100D3000336A43597932597A5176372F49733236AB
:100D4000327A4B7945676976782B477330577670DE
:100D500072315371306A5962316A536179727264C7
:100D600074566C7776397A75634F65766A426E5140
:100D7000627A5361796A716446596D595336625487
:100D80004D735A6A36717056386673685379615478
:100D900045745A72376969555461574F51482F6AE3
:100DA0004B6B6F6C7965653644466E6C2F2F7A728B
:100DB0002B4B4D59334F322F314C5A62646D514396
:100DC000486C415945776F31326538627A7A67737A
:100DD000447766664E45582B2B4B4F4E4759306132
:100DE000436470566254582B5A5733533943624404
:100DF0006B686262487441344D356F646654305399
:100E00004A4D773273515865614776704C35524B75
:100E10006F6736486D4A4D565553764A76397A751E
:100E2000384B63505848486B64546C414A354449C8
:100E300059374C5A74396A73635476427531367631
:100E4000444E6D77332B7A32666D46734E4A736823
:100E50005543716C4651745A647A69637957667662
:100E600072496D597932597A5176372F4A45313660
:100E70007567494232323433512F2B6A6A707239A6
:100E800075563343666544772F2F782B4F454E397F
:100E90003558486B39586C674E78674D67555039EF
:100EA000706445306E5533362B714A52637A7164E3
:100EB0006C636D34322B353359473972377168554D
:100EC0004C5A5557444E6B776D30776D6C35556C79
:100ED00043646D44325777326E784868614C557A76
:100EE000686831534C73686B4E5A6B514477514369
:100EF00068707A4F34432F4C766741414234424107
:100F00004A35444959374C5A743167734551745ABC
:100F1000647A696353536450664746734D52765200
:100F200073316F745453564F6F412F62746753433C
:100F300052767A2B2B4B4D4E335733716375627A51
:100F40006F6F37484F454E393566456B6C556E347B
:100F500065373766744955654346747859374A5A38
:100F6000647A67636963652F684A32537A726A6389
:100F7000362F636E7A547442657A34665648586DDB
:100F8000644F55756B4A65586B4A635831446648DF
:100F900075774F4B4E5A6C48445154565133792B08
:100FA000324C4D4657532F4C766F42417031416F52
:100FB00045776F4657532F4C766F44415A7A4359C1
:100FC000792B5A7A3471375873416666744955657E
:100FD000434E757841344A422B33342F5250326994
:100FE00031725461366971564559735A56366A558D
:100FF000625458473453314B6F413467334450691E
:101000004F682F547367594457764A353533433404
:1010100032323633414E2B7A417437764C456C343C
:101020004F3537505045483865542F44756F4C4202
:101030007531367643466E7766447975794C7378A8
:10104000322B35485947396262756A4566623243C8
:101050005276782B7541506474646D77332B7832F7
:101060007641466371646333774C384432724A5A2E
:10107000637268634B78646E634F656644466E4185
:101080002F33774F475650464A354F316B55765A76
:101090004A78416F41774B684734376E76414E3915
:1010A000646A6C41493542496F464B42436F527105
:1010B0004A4D7A6D644F57753044664875414E64A9
:1010C00064546E415A3742594B355A4C2F71445132
:1010D000627A5361796A716446596D5953365A542C
:1010E000636D617A67683450334448455A624745B6
:1010F0005261454D41514F4E74646E67332B796D8B
:101100002F4B486351714E645761304B67703550B7
:10111000664F477330657570443454435A6D773267
:10112000484E453048593261536E6F39785746738F
:101130004D5276524D35704E2F5831694E7352696B
:101140004D6B536931625161716F71464F5A2F5423
:1011500045746172726F6745705648302F58316917
:101160007377514342467A365548637A612B763914
:1011700069305369567654362B694B526B306F6C1D
:1011800053536650764146637156643359472F7204
:101190004C6B676B46596D59533662544D6B596AA7
:1011A000796A71646C556E342B33342F7844314333
:1011B0004A45796D30545678704932747937707178
:1011C000637A6E41352F44346537376673675665E9
:1011D0004B63734A5279436779755443664F42773C
:1011E0005078794F774C2B4447744C704C78534B64
:1011F000516E342F52483369397152534C73686BB6
:101200004E5A6B5144775343526E772B47465031B9
:10121000495250564D5274523833713942594563D0
:1012200043516466642B55756C4A63333037636E83
:1012300058504D6C53616350334446454A5A4555A6
:101240006A63587557484F314B5A64485550663356
:1012500044467368344849355279415144345443C3
:101260003569775744466E772F33772B4746503191
:10127000495A4F564551745A647A6963795766766C
:101280004C4D6D3457363558634F657644466E770E
:10129000663778657141745A392F6A3865542F441E
:1012A0004F6B4968792B5A7A34693458304C63480B
:1012B00032444E462B58396A61757031594C4D464F
:1012C00033323949622B685875393079486C416F2F
:1012D00045786746326630727A7268637156643355
:1012E00059473972626D67306E6B333666754930B7
:1012F00034334C38425142466773426774307173DD
:101300005543764A4F5A782B6F413972647554436E
:10131000667544412F33794F58764F564341656681
:101320007441556572526D5A7455717330666D70A3
:101330006A3051696C70524B6F6F374875494F6412
:101340006C4D6D343365376949452F754A73787A2A
:101350004E4E657232444E512B58396A6147713195
:1013600042414D6463546D41355044342F2F372F23
:101370004A3032362F794C526B55716C6A38652F72
:101380004274324432444359533752546376547A48
:101390006F6F35482B43504E766430796E704449F8
:1013A000597A4B5A6C30676B6C636B3447343548F1
:1013B0002F694E4E667A31794945796D5648576A9C
:1013C00064486372734255613944634C4A6C302BF4
:1013D0005A33356D48454D6B75393369324441593F
:1013E00043516137476C4952796D514B4846416FC3
:1013F000453472467656397A346136434D4D6471C0
:10140000515031336C5A524B496B366E43467478A7
:1014100059374C5A74396A73636273425736375876
:10142000734965666C4A57577A4C6B414234444164
:101430005A374459613762624E735431396A59469A
:101440006A677162515448614F3532535433674A69
:1014500048343875317A516169686F4E5853334B4F
:10146000596D3633414D307A77697966464D63322E
:101470006D524855372F557A464E556A4764456830
:101480006E38323657764C356F39426F734670314D
:10149000536266575132316A3672685638656D68E4
:1014A0004377594457764C3549354449594C4C3665
:1014B0004E35687670644D575169504E50512F53D8
:1014C00037547155536265355147335571516F79B2
:1014D00058612B756E704474597A4938312B6A52B1
:1014E0002F6E3348636D51796E674B49772F427881
:1014F000342B44354A35444959374A5A39336738C9
:1015000047513962642B54792B43436C7A755448A4
:10151000654F41335067354A686F305455755437BD
:10152000706F78474A453136756F4C427531367663
:101530006A426C6F4C35524B4A45366E4356764B79
:1015400070564B536A6B5369316A51616968714EC9
:101550006E633236334C4A5A397669732F2F397A93
:1015600054487139427745384C4A6433556E664366
:101570004B4D736351694331546154426275686ED7
:10158000754E30686E4A444959374A5A392F68387F
:101590007564387A5276372F7034303543736A4F1A
:1015A0004C516631374C737242774B696D4D376ED3
:1015B0007149755A6C30676B46516E5936486137C0
:1015C000677079655933323771706F637073507318
:1015D00057622F61517577763536336178443666B8
:1015E0004556557A504D483557612F4F6E70434ED2
:1015F0005937496339336A355762334F6E6F494EF5
:1016000049684A4D32577932334446454A5A47551C
:101610007A575875634F637654506B416C397045F7
:101620004E5174774C776171776A36666C425657C3
:101630004C456C344F3537507649456344355566D3
:1016400056576538386A63556F5233624E74626913
:1016500039695153446C67734649735A3165697AE5
:101660002B50336C565052364F734C684C67534C6A
:101670006E494A2F70734265625361617A366A64BB
:101680004E77754B367653672B43495230326F3164
:1016900052614D4E5869315A496B34305450757906
:1016A00069455A3754766F6C3576476B31656D6F87
:1016B000302B7231495250564D52765273316F74FD
:1016C0007A575875383665506D4246384C5A572B04
:1016D00054506B4946346A735A6A46736F314630C8
:1016E000754E3168484E4337646A6F6431656B6F7D
:1016F0006B30716C434963665576577A314C55545B
:101700004264306E6D4A444934334B3568734267E6
:10171000736467734D4A7652465171466D632B3739
:101720006870784F6F492B626C705236496B345831
:101730005348765271395A62376968456A5555750A
:1017400075414F4E4E5A6E417A2B5169766F415119
:1017500070394334382F71746F31476B2B333369D1
:10176000394B5361626D6838485130534B73717413
:101770007164642F51502F7269707146505A3361F1
:1017800079726955616A664875494F6446596D5961
:101790007932597A777235666447587538366550AC
:1017A0006D424754375855687477575A3743764ACD
:1017B0005035784F6F413962646D5379334C4259DB
:1017C0007274612F4C4D67774D426D773758526177
:1017D0004839494A623751367141706C334F2B7228
:1017E0006A706A4D5944504676312B334938346A11
:1017F000626D76707231517145316172434E68622B
:101800004D42746D39586F6152614772514B4F713F
:101810006D3033362B714A4A3833716C6863456BCF
:101820006D632B6A6868786541462B6A496B37336C
:10183000434E7468525349525571715673647478AB
:10184000772B4B786F394B70723951714D6B5A6AE7
:10185000536E70395261484D78474F744C785857E1
:1018600036616B4967554C6844675A4457504A354E
:10187000353341346E38376E4B30737534334276BE
:1018800047413448324450464F522F54736F62449C
:1018900075674942322B3533594739726257673081
:1018A00047513371616D714667634D4E786547638B
:1018B0005569763575317975304C6348324C4F46F1
:1018C00047512F6274415343773778754B4D734AB4
:1018D000523642674C3554365947364868522F5471
:1018E000736761446D784B4A475978747041317819
:1018F0004B30714F443463665650576D31445647F0
:1019000070413361617571696F644E3177574E7400
:101910006254556B4A453136764149423275367AC2
:101920006F4939665548542B57334C386838436CE7
:10193000386667354F423954394B5A5463325A6BC3
:101940005250346F5A5731784D7362344C456F2B77
:10195000534366504F5546384F782B337434596E85
:10196000654F4A7859374A5A643768634B5A655805
:101970006C426458383666726D424777376E566DE2
:10198000744957657A4C734232473554784C396EF6
:1019900032624A5A63376A63617266656E424F4DBE
:1019A0004E7876524E78704B33653174457461735E
:1019B000726F69445A62464442524F6261535541C4
:1019C0002B44454B2F2F316C45315171456C617261
:1019D0006A70684D6F56503149704F564659744A77
:1019E000302F716B666939434A74376D3844664FDE
:1019F00034373078572F42434F5236506E42465557
:101A00004C525857624F6D6F30336931415A4764B9
:101A10006B3973346D6C7A33434E76684177494243
:101A200032323633674A3854306A61626C6F5A4BCF
:101A30004974786E364C6B4A332B7832504D4538AA
:101A40006D552F374A6B796D5647646D735A6565CE
:101A5000536D6D6B4C59514F662F4C7766377865D7
:101A60007267745A396E697057533965666D43777A
:101A70005869775769686B59725562693179516253
:101A800031715A6171706A467574387A526E377165
:101A90004246326E2F6944467A32526E6E68446412
:101AA000772B4B6B49354963667A784C434E75709A
:101AB00067384A35617A59443144514344316F4E55
:101AC000545356756F4139373971547936716A30CC
:101AD000626A564770493261796A716446596B5936
:101AE000445A52442B374143386D6876772F4F73F1
:101AF00030666D706A385469394351536978685A51
:101B000041674D4963376D41777543316637796277
:101B1000612B74737932535333714A347130514CA1
:101B20007A6A67386A4564665A7530716B68594CD1
:101B3000336A4159437759443269413531336F55DE
:101B40006E643861474E4A4A367654762B69494569
:101B500030326F6751534E592B572F336466625A98
:101B60002F6A4B377A33615A336A437A545361345C
:101B70006B78594C336A4359792B627A6F673648D0
:101B80004745483149344556564C6D7A48423438B9
:101B900041452F792F714451627A51616A68714EC3
:101BA000486F324A7972724F7345766A6653374C82
:101BB000546D6D307173527261486F3048423866AF
:101BC0004B6B7067795766364C556C74766434711C
:101BD000624F6C746B557067544B6376334B4F6B2D
:101BE00078664F4D3057764A7131514B4564627279
:101BF00072676745425146634B52645838445650A9
:101C000066504D736B646E5A426F4367346642345C
:101C10004F783450334C45454251466371746533B7
:101C200042462F696F673657484E4F6B67734F496F
:101C30006745464A7539387A516E362F42463379B0
:101C400066754477664C7865724975696C386A6662
:101C500039666D62315769505743314B6F6736486B
:101C6000474E4D315153504E505A30536A68674D6C
:101C70006755503970644530485131617159724629
:101C8000505A38723137626A4E4D54693843535353
:101C90007A7A6A557932656E4B636B346D38376E7C
:101CA00071426E5A7438727338576C68617A616227
:101CB0004674547163655A7A3569354130546351BD
:101CC000666D4E746262554768423153726769456A
:101CD0005253464D6F564E3159624D4657532F4C15
:101CE000506B436756796755445957655358766822
:101CF0004C5262766E6844737865495659724A5AF6
:101D0000647A6963535364506647467373567678B2
:101D100049354C4A763978757341644B394B556275
:101D2000414E2B6D424E3536616D6E6F3866704791
:101D30005A54462F4A5A45764351586C3679764A5A
:101D4000763177754546643359472F724C73686B0B
:101D500074646D77587977576A4A6D515479535343
:101D60007A726A633658646E364B754A6E38786D8F
:101D70007442666561506D706A3159696C67594B80
:101D800041743576624F6C746C736F67617A664824
:101D9000753450616B386D34587137334D4D63660F
:101DA00052503243307252364B63706C3658666E06
:101DB0007149735A30576930334F324B306A593753
:101DC000562F54612F4B4A52634C706463546B55C9
:101DD0006F56423846516F4657712F726D424349D4
:101DE00077654C784A684A44333278386E4A46659B
:101DF000435157553636734A58797757444E6D7765
:101E000032657A3266654670455974635671695217
:101E1000613757475250306946745271736F62444C
:101E2000504D4A68366E62714274772F7341634F2A
:101E30006357552F736766667449556543467478D2
:101E400034334935782B44772F2F7A2B2B434E4E42
:101E50002F6630696C70524B4963376E4C637671F4
:101E60006755416146496A2B596245456855463870
:101E70004F522F5473675944576E4935782B427728
:101E800076397A7563476476624F6B6F6B38726C24
:101E900071566433594F2B72446C67736C4D7335B4
:101EA0007857434C332B784E504546484F5A2B5465
:101EB000456C59727A726A63627A64482F534D7521
:101EC000657A314349307A695576556D6C4A587A4E
:101ED00053666C4646516745684D47385836394118
:101EE000337241544C5A614176514449776D417780
:101EF000476F79535A75307145315972794C68483A
:101F000071646573674A2B496B525951326A435960
:101F1000533662544D73626A4B6B6F6C53616550FC
:101F20006E4A47555461554F4146397A3471375896
:101F300073496566464E5532484E47305861324BBC
:101F4000776A3466314456474A45333665754A7870
:101F500034334935523642514C78514B674A3550EB
:101F60006565454D6B63755A427743675179437791
:101F70005443535379626A63626A66487677506461
:101F80004D706B51434153435158792B33374D4674
:101F9000337538725366683850703854315459620A
:101FA000306254613761705664727342334736331E
:101FB00042312F7A7051364848314E31356E4E6C71
:101FC0003776656E6A7876524E4A704E6572324345
:101FD00077627A65622B7370534B54536157673045
:101FE0006D6B333666574B7842494C42504A3750F6
:101FF000757746634C68645864326476612B6D6F04
:1020000031476F3152694E4E2B76326930545361ED
:102010005466723949704755796D587539796450ED
:10202000652B45734667745A38506A382F6E2F6A8D
:1020300072516F463375387253586738486F2B6248
:102040006B5A544B356137584E30642F592B3271CF
:1020500056665A3759577932327A4645497047554C
:102060005369564F70342B626B52534B786235660E
:102070003879584F000011241FBECFEFCDBFDFE3EA
:10208000DEBF18E3A0E0B8E3E7EBF4E302C005909D
:102090000D92A430B107D9F728E3A4E0B8E301C05A
:1020A0001D92AD39B207E1F70E9458160C94531AED
:1020B0000C9400003F924F925F926F927F928F92AA
:1020C0009F92AF92BF92CF92DF92EF92FF920F93C7
:1020D0001F93CF93DF93CDB7DEB7E897CDBFDEBFB9
:1020E00080918E3860912538611176C020E2829F00
:1020F000C0011124DE0111969D01AD018C01005E2D
:102100001F4F7FE3F72EEEE3EE2E8017910708F4C2
:1021100066C05E01F1E2AF0EB11C7D0120E2E20E6D
:10212000F11C850111962C9111978C9134E0839FBD
:1021300060011124822F82958F708C29F801808391
:1021400012968C911297F0E12F9F90011124982FF5
:1021500096959695292BF8012183F0E48F9FC00175
:10216000112413969C911397892BF801828314965E
:102170000D5F1F4FEA16FB06A9F670918E38772384
:1021800009F4D1C020E081E896E4A2E7B0E1623032
:1021900009F04EC081E896E4A2E7B0E19A0185011A
:1021A000085E1F4F782FF50161915F016827F901E3
:1021B00061939F01B695A7959795879570FF08C085
:1021C000FCE58F27F3ED9F27FCEBAF27F4EBBF2750
:1021D0000A151B0539F74FC090E080E08BCFFC015A
:1021E00061110DC0E858FF4FE4917FEB7E0F7A310B
:1021F00050F4F901708301962F5F3F4F86CFEC5F5B
:10220000F74CE081F2CF7FE97E0F7A3118F479EB59
:102210007E0FEFCF70ED7E0F7A3010F474E0F8CFC0
:10222000EB3219F4F901E082E6CFF901F082E3CF55
:1022300038E1182F1170B695A795979587951123BA
:1022400041F0FCE58F27F3ED9F27FCEBAF27F4EB84
:10225000BF27315071F72F5F7213EACF633009F057
:102260009DCFDA01C5014896F50121915F012D93BB
:102270008E179F07C9F76A01F12CE12C7FE7872EA3
:1022800070EE972EA12CB12CEEEB4E2EECEE5E2EC6
:10229000612C712CD6018C91F701EF56F74C80839D
:1022A00011962C91119730E0C701880F991FFC01FE
:1022B000EE58F74C208331831296EC912E2F229505
:1022C0002F70D701AE57B74C2C932C918701000F7C
:1022D000111F000F111F21112BC0F801EE5AF74CEE
:1022E0001082118212821382FFEFEF1AFF0A23E09D
:1022F000C20ED11C38E0E316F10461F6E896CDBFBA
:10230000DEBFDF91CF911F910F91FF90EF90DF9093
:10231000CF90BF90AF909F908F907F906F905F9085
:102320004F903F90089581E896E4A2E7B0E196CF00
:10233000EF70EC30C0F4F0E0E056FE4E0C942C1A36
:10234000AC11D911E111ED11F511FD1105120D12AC
:1023500015121D1225122D12F801EE5AF74C40826B
:10236000518262827382312CF801EE5AF74C2C9123
:102370002150330B321613060CF477C0F801EE5AD5
:10238000F74C20813181428153818E58974CFC015A
:10239000A081B18111960E94321A672F782F892F60
:1023A0009927F801EE5CF74C6083718382839383F5
:1023B0009BCFF801EE5AF74C80829182A282B382C1
:1023C000D2CFF801EE5AF74C23E032ED40E050E076
:1023D0002083318342835383C6CFF801EE5AF74CF2
:1023E00022E538EC40E050E0F3CFF801EE5AF74C2C
:1023F00025EB3CEB40E050E0EBCFF801EE5AF74C18
:102400002EE532EB40E050E0E3CFF801EE5AF74C16
:102410002FEE36EA40E050E0DBCFF801EE5AF74C01
:102420002AEC3EE940E050E0D3CFF801EE5AF74CF9
:102430002AEA35E940E050E0CBCFF801EE5AF74CFC
:1024400028E83DE840E050E0C3CFF801EE5AF74CF1
:102450002EED34E840E050E0BBCFF801EE5AF74CE7
:1024600023E33DE740E050E0B3CF408151816281FA
:10247000738176956795579547954083518362831D
:102480007383339474CF98E8803128F090EF980FDD
:10249000903150F49BEE909301388F7009F054C046
:1024A00088E080930038089590EE980F903110F4F2
:1024B00094ECF1CF90ED980F903110F491ECEBCFBC
:1024C00090EC980F903110F493EAE5CF90EB980FD1
:1024D000903110F491E9DFCF90EA980F903110F429
:1024E00090E9D9CF90E9980F903110F49BECD3CFBD
:1024F00090E8980F903110F490E8CDCF90E7980FC6
:10250000903110F491E8C7CF90E6980F903110F415
:1025100092E8C1CF90E5980F903110F490EBBBCFCB
:1025200090E4980F903110F49CE9B5CF90E3980FA8
:10253000903110F490EEAFCF90E2980F903110F4FC
:1025400094E9A9CF96E9A7CF813011F48BE6A9CF02
:10255000823011F484E4A5CF833011F481E4A1CF5B
:10256000843011F483E29DCF853011F481E199CF5D
:10257000863011F480E195CF873011F48BE491CF50
:10258000883019F4109200380895893011F481E0F0
:1025900088CF8A3011F482E084CF8B3011F480E34D
:1025A00080CF8C3011F48CE17CCF8D3011F480E63B
:1025B00078CF8E3011F484E174CF86E172CF1F9210
:1025C0000F920FB60F9211242F933F938F939F93E7
:1025D0009091080430910238232F292790919B383D
:1025E00080919C388927822380939C3890959223F0
:1025F00090939B38892383278093023880919A385F
:10260000811113C0809101388093C40881E08093C8
:102610009A3881E08093960A9F918F913F912F91F4
:102620000F900FBE0F901F901895809100388093E7
:10263000C40810929A38EDCF1F920F920FB60F92E6
:1026400011240F931F932F933F934F935F936F9397
:102650007F938F939F93AF93BF93EF93FF9380915B
:1026600099388730E9F42091983880918F3890918B
:10267000903828171906A1F480918E388F5F8093C7
:102680008E3880918D388F5F80938D380E945A10DC
:1026900010928F38109290381092993810928C388E
:1026A000809199388111A5C080918B3881113CC0EF
:1026B00020919138211102C081E0A6C080918F380D
:1026C00090919038009709F05EC010923A0A1092EB
:1026D0003B0A85E392E88093360A9093370A80E8B4
:1026E000809301388FE78093003880918238811180
:1026F00031C08FEF90E08093360A9093370A1092A2
:10270000380A1092390A8091723890917338809308
:102710003A0A90933B0A80918F38909190380196B5
:1027200080938F389093903881E08093860AFF9150
:10273000EF91BF91AF919F918F917F916F915F9139
:102740004F913F912F911F910F910F900FBE0F90BE
:102750001F9018958091523890915338A091543819
:10276000B09155388093360A9093370AB695A7955D
:10277000979587958093380A9093390A80913238DB
:1027800090913338C4CF2817190629F681E0809339
:10279000993810928F381092903880918338811137
:1027A0000FC08FEF90E08093360A9093370A109213
:1027B000380A1092390A8091743890917538A7CFF1
:1027C0008091563890915738A0915838B091593827
:1027D0008093360A9093370AB695A7959795879573
:1027E0008093380A9093390A80913638909137381F
:1027F0008ECF813009F061C090918B38911194CFC8
:102800009091923891111EC080938B3885E392E8A5
:102810008093360A9093370A80933A0A90933B0A42
:102820001092380A1092390A89E0809399381092F0
:102830008F381092903880918A3880938E380E9419
:10284000431269CF20918F38309190389217130638
:1028500009F061CF82E08093993810928F381092FE
:1028600090388091843881110FC08FEF90E0809371
:10287000360A9093370A1092380A1092390A8091DA
:1028800076389091773843CF80915A3890915B3861
:10289000A0915C38B0915D388093360A9093370AE6
:1028A000B695A795979587958093380A9093390A9E
:1028B00080913A3890913B382ACF823009F044C059
:1028C00080918B38811130CF80919338882309F41F
:1028D000F3CE20918F38309190388217130609F08B
:1028E0001ACF83E08093993810928F3810929038E5
:1028F0008091853881110FC08FEF90E08093360A68
:102900009093370A1092380A1092390A80917838D9
:1029100090917938FCCE80915E3890915F38A0918B
:102920006038B09161388093360A9093370AB69533
:10293000A795979587958093380A9093390A809147
:102940003E3890913F38E3CE833009F044C0809107
:102950008B388111E9CE80919438882309F4ACCE6C
:1029600020918F38309190388217130609F0D3CE1A
:1029700084E08093993810928F381092903880912B
:10298000863881110FC08FEF90E08093360A9093C4
:10299000370A1092380A1092390A80917A38909149
:1029A0007B38B5CE8091623890916338A0916438BD
:1029B000B09165388093360A9093370AB695A795FB
:1029C000979587958093380A9093390A8091423879
:1029D000909143389CCE843009F044C080918B386C
:1029E0008111A2CE80919538882309F465CE20917B
:1029F0008F38309190388217130609F08CCE85E01D
:102A00008093993810928F3810929038809187383F
:102A100081110FC08FEF90E08093360A9093370AB0
:102A20001092380A1092390A80917C3890917D3842
:102A30006ECE8091663890916738A0916838B091D9
:102A400069388093360A9093370AB695A79597957B
:102A500087958093380A9093390A809146389091EF
:102A6000473855CE853009F044C080918B388111AC
:102A70005BCE80919638882309F41ECE20918F3842
:102A8000309190388217130609F045CE86E0809386
:102A9000993810928F38109290388091883881112F
:102AA0000FC08FEF90E08093360A9093370A109210
:102AB000380A1092390A80917E3890917F3827CE5B
:102AC00080916A3890916B38A0916C38B0916D38D4
:102AD0008093360A9093370AB695A7959795879570
:102AE0008093380A9093390A80914A3890914B38F4
:102AF0000ECE863009F08BC080918B38811114CEB8
:102B000080919738882309F4D7CD20918F38309160
:102B100090388217130609F0FECD87E0809399382C
:102B200010928F381092903880918938811131C07D
:102B30008FEF90E08093360A9093370A1092380A0C
:102B40001092390A809180389091813880933A0AA6
:102B500090933B0A4FEF50E060E070E040932E38D6
:102B600050932F38609330387093313810922A3850
:102B700010922B3810922C3810922D38B0E0A0E033
:102B80008093263890932738A0932838B09329381B
:102B9000C2CD80916E3890916F38A0917038B0910D
:102BA00071388093360A9093370A8C019D0142E078
:102BB00036952795179507954A95D1F70093380ACA
:102BC0001093390A40914E3850914F3860915038E7
:102BD0007091513840933A0A50933B0A80932E38B3
:102BE00090932F38A0933038B093313800932A381F
:102BF00010932B3820932C3830932D38409326385F
:102C000050932738609328387093293884CD8730C3
:102C100049F480918B38811187CD8091983881114A
:102C20007ACD4ACD883009F07FCD81E080938B3812
:102C300085E392E88093360A9093370A80933A0AA4
:102C400090933B0A1092380A1092390A89E08093D7
:102C5000993810928F381092903880918A388093EA
:102C60008E380E94431260CD1F920F920FB60F92C2
:102C700011248F93EF93FF93E0E0F4E082E08683EA
:102C80008583FF91EF918F910F900FBE0F901F9052
:102C900018951F920F920FB60F9211248F9381E017
:102CA00080930B0A8F910F900FBE0F901F90189575
:102CB000CF93DF93CDB7DEB7C058D109CDBFDEBF0C
:102CC00010928E3889E08093993810928F38109244
:102CD000903810922538809101048260809301041D
:102CE00080910504826080930504809106048260CF
:102CF0008093060480912104806280932104809156
:102D0000250480628093250488E0809314048093D6
:102D100015048093160480931704F89481E080933F
:102D2000E3059091400495609093400492E0909365
:102D300005049093010440E24093C00834E03093CE
:102D4000C1088093C2082091C00821602093C00868
:102D5000789480930006109201064093020620E4C6
:102D60002093080620E32093090690930C0691E136
:102D700090930A06F8949091210492609093210414
:102D80009091250492609093250490912504916080
:102D900090932504909121049160909321041092C6
:102DA000E4051092000A93E39093010A45E352E888
:102DB0004093260A5093270A66E372E860932A0A32
:102DC00070932B0A1092280A1092290A9091000AF7
:102DD00091609093000A7894F8941092810A62E9C5
:102DE0007AEA60938C0A70938D0A8093850A8093A7
:102DF000800A7894F8941092910A99E190931301C3
:102E000040939C0A50939D0A8093950A8093900A60
:102E10007894309321048DE695E080930808909390
:102E2000090880EC80930608412C512C3201A12C1A
:102E3000312C09E010E0F12CE12C812CD12CC12C9B
:102E4000BB24BA94992493948091040887FF1BC0F3
:102E50008091040887FFFCCFE091000881E0E8162C
:102E6000F10409F446C090F182E0E816F10409F497
:102E70004DC093E0E916F10409F4E9C0FE01319672
:102E8000819181118EC120900238B228B22481E054
:102E9000C816D10409F4E2C108F48AC182E0C81658
:102EA000D10409F429C293E0C916D10469F40730AA
:102EB000110509F0C3C280912538823029F4B5C1CB
:102EC000812CA2E0CA2ED12CB22CBECFEC3551F40D
:102ED00066EB74EBCE0101960E944C1AEE24E3944B
:102EE000F12CCCCF6AEA74EBCE0101960E944C1A09
:102EF000C5CFEC3509F02DC066EB74EBCE01019621
:102F00000E944C1AE2E0EE2EF12CB8CFE456E631E6
:102F100008F0CEC0F0E0E157F84E0C942C1A0618D9
:102F2000CD17581858185818FF1758185818581807
:102F30005818E6175818D91758185818A517B91758
:102F40001818581858185818F41783E0C816D104E0
:102F500039F46AEA74EBCE0101960E944C1A4CC017
:102F600061EB74EBCE0101960E944C1A10E000E078
:102F700085CFC114D10469F79092253897EF9093CB
:102F8000013887E78093003861EB74EBCE0101963E
:102F90000E944C1A01E010E071CFC114D104C9F2B3
:102FA00061EB74EBCE0101960E944C1A02E010E036
:102FB00065CF81E0C816D10461F661EB74EBCE01F8
:102FC00001960E944C1A03E010E058CF92E0C91617
:102FD000D10409F0BECF61EB74EBCE0101960E94E3
:102FE0004C1A04E010E04ACF61EB74EBCE0101967D
:102FF0000E944C1A05E010E0F12CE12C3FCFC114E7
:10300000D10409F0A6CF06E010E00EC083E0C81698
:10301000D10409F09ECF9092253874E6472E512CAA
:10302000612C712C07E010E053E0E52EF12C26CF47
:1030300093E0C916D10409F08CCF9092253864E64C
:10304000462E512C612C712C08E010E0EDCF06309B
:103050001105A9F580ED8E0F8A3030F08FE98E0FC3
:10306000863030F589EA8E0F31100BC080938E3890
:1030700066EB74EBCE0101960E944C1A3324339414
:10308000FDCE20918E3890E1299F90011124822B52
:1030900080938E3880918E380E94431261EB74EBDE
:1030A000CE0101960E944C1A312C09E010E0A4CF09
:1030B0006AEA74EBCE0101960E944C1AF6CFC80161
:1030C0000797029708F0DACE8E2F8F7D81548A31D0
:1030D00028F08E2F8B7F8B3209F059C08FE18A1533
:1030E00070F0AA2DB0E0AC5FB74CEC934E0E511CC3
:1030F000611C711CA39443E0C42ED12CBFCE90E27E
:10310000A912F9CF8FEB8E0F8A3130F08FE98E0F35
:103110008A3100F589EB8E0F9FE3492255246624FE
:10312000772490E0B0E0A0E0481659066A067B06D6
:10313000E1F0909225386AEA74EBCE0101960E9484
:103140004C1A412C512C3201A12C09E010E0F12C39
:10315000E12CD1CF80ED8E0F8A3010F484E0DBCFEC
:103160008FE3EB32C9F68EE3D7CF82E0073011054B
:1031700009F083E08093253861EB74EBCE01019672
:103180000E944C1A412C512C3201A12CE0CF1092FC
:1031900025386AEA74EBCE0101960E944C1AA12CE4
:1031A00084CF9091040895FFFCCF8093020868CEED
:1031B000B4FE17C08091080484FD86CE809110066D
:1031C00090911106A0911206B0911306892F9A2FA3
:1031D000AB2FBB2780938E3880918E380E9443128C
:1031E000E9CFB5FE0FC080918E38811105C0809166
:1031F0008E380E94431268CE80918E388150809321
:103200008E38F5CFB6FE08C080918E388F3F79F3A7
:1032100080918E388F5FF3CFB7FC03C00115110585
:1032200089F480918E3880938A3810928D380E946C
:103230005A1010928B381092993810928F38109241
:103240009038CAC00130110509F03ECE09E010E007
:10325000F12CE12C23E0C22ED12C36CE80912538E2
:10326000823079F480918B38813069F487EF8093D4
:10327000013887E7809300389092253810928B3878
:10328000E9CF833079F391E0891609F419CE023041
:10329000110509F588E08093993810928B3809E080
:1032A00010E0F12CE12CD12CC12C80918B38813095
:1032B00009F00ACE80918A3880938E3880918E38BA
:1032C0000E94431210928B3809E010E0F12CE12C9F
:1032D000D12CC12CF9CDB7FC03C00330110529F75F
:1032E0008091993880938C3809E010E0F12CE12C22
:1032F00092E0C92ED12CD9CF80918C38811112C087
:1033000080918C388093993810928F381092903831
:10331000B5FC04C00230110509F043C088E0809379
:103320009938D0CF80918C38811129C080918D3807
:10333000882329F180912E3890912F38A091303830
:10334000B09131388093360A9093370A80912638AD
:1033500090912738A0912838B091293880933A0A63
:1033600090933B0A80912A3890912B38A0912C3869
:10337000B0912D388093380A9093390AC9CF809143
:103380008C38815080939938E0918C38E150FF0B54
:10339000EF56F74C808190E080938F38909390386F
:1033A000B7CFB6FC03C004301105B1F580918C385D
:1033B0008830B8F480918C388F5F80938C38E0919E
:1033C0008C38F0E0EF56F74C8081811119C088E00D
:1033D0008093993890928B3809E010E0F12CE12C21
:1033E00017C080918C38883051F787E080939938E6
:1033F0008091983890E080938F3890939038DFCF09
:1034000010928B3809E010E0F12CE12C8824839491
:10341000CC24C394D12C58CDB7FC04C001151105A0
:1034200009F052CD80918C38883028F480918C3806
:103430008F5F80938C3810928B38CECF0830110577
:1034400031F480912538833009F03ECDEECE023044
:10345000110509F463CF38CDEE0FFF1F0590F491ED
:10346000E02D09940E943D1AA59F900DB49F900DE8
:10347000A49F800D911D11240895A29FB001B39FB8
:10348000C001A39F700D811D1124911DB29F700D6D
:10349000811D1124911D0895FB01DC0101900D9205
:0A34A0000020E1F70895F894FFCF33
:0D34AA00234E41434B0A002341434B0A00CF
:0434B7000888FF0082
:00000001FF
